{
  "contractName": "BiddingContract",
  "abi": [
    {
      "anonymous": false,
      "inputs": [
        {
          "indexed": true,
          "internalType": "uint256",
          "name": "projectId",
          "type": "uint256"
        },
        {
          "indexed": true,
          "internalType": "address",
          "name": "clientAddress",
          "type": "address"
        },
        {
          "indexed": true,
          "internalType": "address",
          "name": "freelancerAddress",
          "type": "address"
        },
        {
          "indexed": false,
          "internalType": "string",
          "name": "proposal",
          "type": "string"
        },
        {
          "indexed": false,
          "internalType": "uint256",
          "name": "deliveryTime",
          "type": "uint256"
        },
        {
          "indexed": false,
          "internalType": "uint256",
          "name": "bidAmount",
          "type": "uint256"
        }
      ],
      "name": "BidPlaced",
      "type": "event"
    },
    {
      "inputs": [
        {
          "internalType": "uint256",
          "name": "",
          "type": "uint256"
        },
        {
          "internalType": "uint256",
          "name": "",
          "type": "uint256"
        }
      ],
      "name": "bids",
      "outputs": [
        {
          "internalType": "address",
          "name": "clientAddress",
          "type": "address"
        },
        {
          "internalType": "address",
          "name": "freelancerAddress",
          "type": "address"
        },
        {
          "internalType": "uint256",
          "name": "deliveryTime",
          "type": "uint256"
        },
        {
          "internalType": "string",
          "name": "proposal",
          "type": "string"
        },
        {
          "internalType": "uint256",
          "name": "bidAmount",
          "type": "uint256"
        }
      ],
      "stateMutability": "view",
      "type": "function"
    },
    {
      "inputs": [
        {
          "internalType": "uint256",
          "name": "projectId",
          "type": "uint256"
        },
        {
          "internalType": "address",
          "name": "_freelancerAddress",
          "type": "address"
        },
        {
          "internalType": "string",
          "name": "_proposal",
          "type": "string"
        },
        {
          "internalType": "uint256",
          "name": "_deliveryTime",
          "type": "uint256"
        },
        {
          "internalType": "uint256",
          "name": "_bidAmount",
          "type": "uint256"
        }
      ],
      "name": "placeBid",
      "outputs": [],
      "stateMutability": "nonpayable",
      "type": "function"
    },
    {
      "inputs": [
        {
          "internalType": "uint256",
          "name": "projectId",
          "type": "uint256"
        },
        {
          "internalType": "uint256",
          "name": "index",
          "type": "uint256"
        }
      ],
      "name": "getBid",
      "outputs": [
        {
          "internalType": "address",
          "name": "",
          "type": "address"
        },
        {
          "internalType": "address",
          "name": "",
          "type": "address"
        },
        {
          "internalType": "string",
          "name": "",
          "type": "string"
        },
        {
          "internalType": "uint256",
          "name": "",
          "type": "uint256"
        },
        {
          "internalType": "uint256",
          "name": "",
          "type": "uint256"
        }
      ],
      "stateMutability": "view",
      "type": "function"
    },
    {
      "inputs": [
        {
          "internalType": "uint256",
          "name": "projectId",
          "type": "uint256"
        }
      ],
      "name": "getBidsCount",
      "outputs": [
        {
          "internalType": "uint256",
          "name": "",
          "type": "uint256"
        }
      ],
      "stateMutability": "view",
      "type": "function"
    }
  ],
  "bytecode": "0x608060405234801561001057600080fd5b50610da6806100206000396000f3fe608060405234801561001057600080fd5b506004361061004c5760003560e01c80630f407c79146100515780634008f9c01461006d578063582c7ffd1461009d5780637b3c4baa146100d1575b600080fd5b61006b600480360381019061006691906107b5565b610105565b005b6100876004803603810190610082919061084c565b6102c4565b6040516100949190610888565b60405180910390f35b6100b760048036038101906100b291906108a3565b6102e3565b6040516100c8959493929190610971565b60405180910390f35b6100eb60048036038101906100e691906108a3565b6104ac565b6040516100fc9594939291906109cb565b60405180910390f35b60006040518060a001604052803373ffffffffffffffffffffffffffffffffffffffff1681526020018673ffffffffffffffffffffffffffffffffffffffff16815260200184815260200185815260200183815250905060008087815260200190815260200160002081908060018154018082558091505060019003906000526020600020906005020160009091909190915060008201518160000160006101000a81548173ffffffffffffffffffffffffffffffffffffffff021916908373ffffffffffffffffffffffffffffffffffffffff16021790555060208201518160010160006101000a81548173ffffffffffffffffffffffffffffffffffffffff021916908373ffffffffffffffffffffffffffffffffffffffff1602179055506040820151816002015560608201518160030190816102459190610c31565b506080820151816004015550508473ffffffffffffffffffffffffffffffffffffffff163373ffffffffffffffffffffffffffffffffffffffff16877fffa6e90a8989cd2346c136b987468eb8ab1ea201e7abe2ed3ac603688b9870aa8787876040516102b493929190610d03565b60405180910390a4505050505050565b6000806000838152602001908152602001600020805490509050919050565b60008060606000806000806000898152602001908152602001600020878154811061031157610310610d41565b5b90600052602060002090600502016040518060a00160405290816000820160009054906101000a900473ffffffffffffffffffffffffffffffffffffffff1673ffffffffffffffffffffffffffffffffffffffff1673ffffffffffffffffffffffffffffffffffffffff1681526020016001820160009054906101000a900473ffffffffffffffffffffffffffffffffffffffff1673ffffffffffffffffffffffffffffffffffffffff1673ffffffffffffffffffffffffffffffffffffffff168152602001600282015481526020016003820180546103f090610a54565b80601f016020809104026020016040519081016040528092919081815260200182805461041c90610a54565b80156104695780601f1061043e57610100808354040283529160200191610469565b820191906000526020600020905b81548152906001019060200180831161044c57829003601f168201915b5050505050815260200160048201548152505090508060000151816020015182606001518360400151846080015195509550955095509550509295509295909350565b600060205281600052604060002081815481106104c857600080fd5b9060005260206000209060050201600091509150508060000160009054906101000a900473ffffffffffffffffffffffffffffffffffffffff16908060010160009054906101000a900473ffffffffffffffffffffffffffffffffffffffff169080600201549080600301805461053e90610a54565b80601f016020809104026020016040519081016040528092919081815260200182805461056a90610a54565b80156105b75780601f1061058c576101008083540402835291602001916105b7565b820191906000526020600020905b81548152906001019060200180831161059a57829003601f168201915b5050505050908060040154905085565b6000604051905090565b600080fd5b600080fd5b6000819050919050565b6105ee816105db565b81146105f957600080fd5b50565b60008135905061060b816105e5565b92915050565b600073ffffffffffffffffffffffffffffffffffffffff82169050919050565b600061063c82610611565b9050919050565b61064c81610631565b811461065757600080fd5b50565b60008135905061066981610643565b92915050565b600080fd5b600080fd5b6000601f19601f8301169050919050565b7f4e487b7100000000000000000000000000000000000000000000000000000000600052604160045260246000fd5b6106c282610679565b810181811067ffffffffffffffff821117156106e1576106e061068a565b5b80604052505050565b60006106f46105c7565b905061070082826106b9565b919050565b600067ffffffffffffffff8211156107205761071f61068a565b5b61072982610679565b9050602081019050919050565b82818337600083830152505050565b600061075861075384610705565b6106ea565b90508281526020810184848401111561077457610773610674565b5b61077f848285610736565b509392505050565b600082601f83011261079c5761079b61066f565b5b81356107ac848260208601610745565b91505092915050565b600080600080600060a086880312156107d1576107d06105d1565b5b60006107df888289016105fc565b95505060206107f08882890161065a565b945050604086013567ffffffffffffffff811115610811576108106105d6565b5b61081d88828901610787565b935050606061082e888289016105fc565b925050608061083f888289016105fc565b9150509295509295909350565b600060208284031215610862576108616105d1565b5b6000610870848285016105fc565b91505092915050565b610882816105db565b82525050565b600060208201905061089d6000830184610879565b92915050565b600080604083850312156108ba576108b96105d1565b5b60006108c8858286016105fc565b92505060206108d9858286016105fc565b9150509250929050565b6108ec81610631565b82525050565b600081519050919050565b600082825260208201905092915050565b60005b8381101561092c578082015181840152602081019050610911565b60008484015250505050565b6000610943826108f2565b61094d81856108fd565b935061095d81856020860161090e565b61096681610679565b840191505092915050565b600060a08201905061098660008301886108e3565b61099360208301876108e3565b81810360408301526109a58186610938565b90506109b46060830185610879565b6109c16080830184610879565b9695505050505050565b600060a0820190506109e060008301886108e3565b6109ed60208301876108e3565b6109fa6040830186610879565b8181036060830152610a0c8185610938565b9050610a1b6080830184610879565b9695505050505050565b7f4e487b7100000000000000000000000000000000000000000000000000000000600052602260045260246000fd5b60006002820490506001821680610a6c57607f821691505b602082108103610a7f57610a7e610a25565b5b50919050565b60008190508160005260206000209050919050565b60006020601f8301049050919050565b600082821b905092915050565b600060088302610ae77fffffffffffffffffffffffffffffffffffffffffffffffffffffffffffffffff82610aaa565b610af18683610aaa565b95508019841693508086168417925050509392505050565b6000819050919050565b6000610b2e610b29610b24846105db565b610b09565b6105db565b9050919050565b6000819050919050565b610b4883610b13565b610b5c610b5482610b35565b848454610ab7565b825550505050565b600090565b610b71610b64565b610b7c818484610b3f565b505050565b5b81811015610ba057610b95600082610b69565b600181019050610b82565b5050565b601f821115610be557610bb681610a85565b610bbf84610a9a565b81016020851015610bce578190505b610be2610bda85610a9a565b830182610b81565b50505b505050565b600082821c905092915050565b6000610c0860001984600802610bea565b1980831691505092915050565b6000610c218383610bf7565b9150826002028217905092915050565b610c3a826108f2565b67ffffffffffffffff811115610c5357610c5261068a565b5b610c5d8254610a54565b610c68828285610ba4565b600060209050601f831160018114610c9b5760008415610c89578287015190505b610c938582610c15565b865550610cfb565b601f198416610ca986610a85565b60005b82811015610cd157848901518255600182019150602085019450602081019050610cac565b86831015610cee5784890151610cea601f891682610bf7565b8355505b6001600288020188555050505b505050505050565b60006060820190508181036000830152610d1d8186610938565b9050610d2c6020830185610879565b610d396040830184610879565b949350505050565b7f4e487b7100000000000000000000000000000000000000000000000000000000600052603260045260246000fdfea2646970667358221220a1da07b359fa89b7a9077cb7126a015f5fee48a3b16b5c122efb12d8626cfad764736f6c63430008130033",
  "immutableReferences": {},
  "source": "// SPDX-License-Identifier: MIT\npragma solidity 0.8.19;\n\ncontract BiddingContract {\n    struct Bid {\n        address clientAddress;\n        address freelancerAddress;\n        uint256 deliveryTime;\n        string proposal;\n        uint256 bidAmount;\n    }\n\n    mapping(uint256 => Bid[]) public bids;\n\n    event BidPlaced(uint256 indexed projectId, address indexed clientAddress, address indexed freelancerAddress, string proposal, uint256 deliveryTime, uint256 bidAmount);\n\n    function placeBid(uint256 projectId, address _freelancerAddress, string memory _proposal, uint256 _deliveryTime, uint256 _bidAmount) external {\n        Bid memory newBid = Bid({\n            clientAddress: msg.sender,\n            freelancerAddress: _freelancerAddress,\n            proposal: _proposal,\n            deliveryTime: _deliveryTime,\n            bidAmount: _bidAmount\n        });\n\n        bids[projectId].push(newBid);\n        emit BidPlaced(projectId, msg.sender, _freelancerAddress, _proposal, _deliveryTime, _bidAmount);\n    }\n\n    function getBid(uint256 projectId, uint256 index) external view returns (address, address, string memory, uint256, uint256) {\n        Bid memory bid = bids[projectId][index];\n        return (bid.clientAddress, bid.freelancerAddress, bid.proposal, bid.deliveryTime, bid.bidAmount);\n    }\n\n    function getBidsCount(uint256 projectId) external view returns (uint256) {\n        return bids[projectId].length;\n    }\n}\n",
  "sourcePath": "/home/razalak/ethlancew3/contracts/PlaceBid.sol",
  "compiler": {
    "name": "solc",
    "version": "0.8.19+commit.7dd6d404.Emscripten.clang"
  },
  "schemaVersion": "3.4.16",
  "updatedAt": "2024-05-05T11:45:41.269Z",
  "devdoc": {
    "kind": "dev",
    "methods": {},
    "version": 1
  },
  "userdoc": {
    "kind": "user",
    "methods": {},
    "version": 1
  }
}