{
  "contractName": "Bidding",
  "abi": [
    {
      "anonymous": false,
      "inputs": [
        {
          "indexed": false,
          "internalType": "uint256",
          "name": "projectId",
          "type": "uint256"
        },
        {
          "indexed": false,
          "internalType": "address",
          "name": "bidder",
          "type": "address"
        },
        {
          "indexed": false,
          "internalType": "uint256",
          "name": "amount",
          "type": "uint256"
        }
      ],
      "name": "BidPlaced",
      "type": "event"
    },
    {
      "anonymous": false,
      "inputs": [
        {
          "indexed": false,
          "internalType": "uint256",
          "name": "projectId",
          "type": "uint256"
        },
        {
          "indexed": false,
          "internalType": "address",
          "name": "freelancer",
          "type": "address"
        }
      ],
      "name": "FreelancerSelected",
      "type": "event"
    },
    {
      "anonymous": false,
      "inputs": [
        {
          "indexed": false,
          "internalType": "uint256",
          "name": "projectId",
          "type": "uint256"
        },
        {
          "indexed": false,
          "internalType": "uint256",
          "name": "amount",
          "type": "uint256"
        },
        {
          "indexed": false,
          "internalType": "address",
          "name": "freelancer",
          "type": "address"
        }
      ],
      "name": "PaymentReleased",
      "type": "event"
    },
    {
      "anonymous": false,
      "inputs": [
        {
          "indexed": false,
          "internalType": "uint256",
          "name": "projectId",
          "type": "uint256"
        },
        {
          "indexed": false,
          "internalType": "address",
          "name": "client",
          "type": "address"
        },
        {
          "indexed": false,
          "internalType": "string",
          "name": "name",
          "type": "string"
        },
        {
          "indexed": false,
          "internalType": "string",
          "name": "category",
          "type": "string"
        },
        {
          "indexed": false,
          "internalType": "uint256",
          "name": "expectedPay",
          "type": "uint256"
        }
      ],
      "name": "ProjectCreated",
      "type": "event"
    },
    {
      "anonymous": false,
      "inputs": [
        {
          "indexed": false,
          "internalType": "uint256",
          "name": "projectId",
          "type": "uint256"
        },
        {
          "indexed": false,
          "internalType": "enum Bidding.ProjectStatus",
          "name": "status",
          "type": "uint8"
        }
      ],
      "name": "ProjectStatusChanged",
      "type": "event"
    },
    {
      "inputs": [],
      "name": "numProjects",
      "outputs": [
        {
          "internalType": "uint256",
          "name": "",
          "type": "uint256"
        }
      ],
      "stateMutability": "view",
      "type": "function",
      "constant": true
    },
    {
      "inputs": [
        {
          "internalType": "uint256",
          "name": "",
          "type": "uint256"
        }
      ],
      "name": "projects",
      "outputs": [
        {
          "internalType": "address",
          "name": "client",
          "type": "address"
        },
        {
          "internalType": "string",
          "name": "name",
          "type": "string"
        },
        {
          "internalType": "string",
          "name": "outline",
          "type": "string"
        },
        {
          "internalType": "string",
          "name": "description",
          "type": "string"
        },
        {
          "internalType": "uint256",
          "name": "expectedPay",
          "type": "uint256"
        },
        {
          "internalType": "string",
          "name": "category",
          "type": "string"
        },
        {
          "internalType": "enum Bidding.ProjectStatus",
          "name": "status",
          "type": "uint8"
        },
        {
          "internalType": "address",
          "name": "selectedFreelancer",
          "type": "address"
        }
      ],
      "stateMutability": "view",
      "type": "function",
      "constant": true
    },
    {
      "inputs": [
        {
          "internalType": "string",
          "name": "_name",
          "type": "string"
        },
        {
          "internalType": "string",
          "name": "_outline",
          "type": "string"
        },
        {
          "internalType": "string",
          "name": "_description",
          "type": "string"
        },
        {
          "internalType": "uint256",
          "name": "_expectedPay",
          "type": "uint256"
        },
        {
          "internalType": "string",
          "name": "_category",
          "type": "string"
        }
      ],
      "name": "createProject",
      "outputs": [],
      "stateMutability": "nonpayable",
      "type": "function"
    },
    {
      "inputs": [
        {
          "internalType": "uint256",
          "name": "projectId",
          "type": "uint256"
        },
        {
          "internalType": "uint256",
          "name": "amount",
          "type": "uint256"
        }
      ],
      "name": "placeBid",
      "outputs": [],
      "stateMutability": "nonpayable",
      "type": "function"
    },
    {
      "inputs": [
        {
          "internalType": "uint256",
          "name": "projectId",
          "type": "uint256"
        },
        {
          "internalType": "address",
          "name": "freelancer",
          "type": "address"
        }
      ],
      "name": "selectFreelancer",
      "outputs": [],
      "stateMutability": "nonpayable",
      "type": "function"
    },
    {
      "inputs": [
        {
          "internalType": "uint256",
          "name": "projectId",
          "type": "uint256"
        }
      ],
      "name": "completeProject",
      "outputs": [],
      "stateMutability": "payable",
      "type": "function",
      "payable": true
    },
    {
      "inputs": [
        {
          "internalType": "uint256",
          "name": "projectId",
          "type": "uint256"
        }
      ],
      "name": "cancelProject",
      "outputs": [],
      "stateMutability": "nonpayable",
      "type": "function"
    },
    {
      "inputs": [
        {
          "internalType": "uint256",
          "name": "projectId",
          "type": "uint256"
        },
        {
          "internalType": "address",
          "name": "bidder",
          "type": "address"
        }
      ],
      "name": "getBidAmount",
      "outputs": [
        {
          "internalType": "uint256",
          "name": "",
          "type": "uint256"
        }
      ],
      "stateMutability": "view",
      "type": "function",
      "constant": true
    }
  ],
  "bytecode": "0x608060405234801561001057600080fd5b50611d3d806100206000396000f3fe60806040526004361061007b5760003560e01c806357c90de51161004e57806357c90de5146101325780635a067baa1461015b578063b47089b414610186578063eab03ca2146101c35761007b565b8063107046bd146100805780632245f152146100c457806324941147146100e0578063380deabc14610109575b600080fd5b34801561008c57600080fd5b506100a760048036038101906100a29190610f02565b6101ec565b6040516100bb989796959493929190611086565b60405180910390f35b6100de60048036038101906100d99190610f02565b6104a1565b005b3480156100ec57600080fd5b5061010760048036038101906101029190610f02565b61073c565b005b34801561011557600080fd5b50610130600480360381019061012b919061114c565b6108c7565b005b34801561013e57600080fd5b506101596004803603810190610154919061118c565b610acf565b005b34801561016757600080fd5b50610170610c66565b60405161017d91906111cc565b60405180910390f35b34801561019257600080fd5b506101ad60048036038101906101a8919061114c565b610c6c565b6040516101ba91906111cc565b60405180910390f35b3480156101cf57600080fd5b506101ea60048036038101906101e5919061131c565b610cc9565b005b60006020528060005260406000206000915090508060000160009054906101000a900473ffffffffffffffffffffffffffffffffffffffff169080600101805461023590611436565b80601f016020809104026020016040519081016040528092919081815260200182805461026190611436565b80156102ae5780601f10610283576101008083540402835291602001916102ae565b820191906000526020600020905b81548152906001019060200180831161029157829003601f168201915b5050505050908060020180546102c390611436565b80601f01602080910402602001604051908101604052809291908181526020018280546102ef90611436565b801561033c5780601f106103115761010080835404028352916020019161033c565b820191906000526020600020905b81548152906001019060200180831161031f57829003601f168201915b50505050509080600301805461035190611436565b80601f016020809104026020016040519081016040528092919081815260200182805461037d90611436565b80156103ca5780601f1061039f576101008083540402835291602001916103ca565b820191906000526020600020905b8154815290600101906020018083116103ad57829003601f168201915b5050505050908060040154908060050180546103e590611436565b80601f016020809104026020016040519081016040528092919081815260200182805461041190611436565b801561045e5780601f106104335761010080835404028352916020019161045e565b820191906000526020600020905b81548152906001019060200180831161044157829003601f168201915b5050505050908060060160009054906101000a900460ff16908060060160019054906101000a900473ffffffffffffffffffffffffffffffffffffffff16905088565b600080600083815260200190815260200160002090503373ffffffffffffffffffffffffffffffffffffffff168160000160009054906101000a900473ffffffffffffffffffffffffffffffffffffffff1673ffffffffffffffffffffffffffffffffffffffff1614610549576040517f08c379a0000000000000000000000000000000000000000000000000000000008152600401610540906114d9565b60405180910390fd5b6001600381111561055d5761055c61100f565b5b8160060160009054906101000a900460ff1660038111156105815761058061100f565b5b146105c1576040517f08c379a00000000000000000000000000000000000000000000000000000000081526004016105b890611545565b60405180910390fd5b60028160060160006101000a81548160ff021916908360038111156105e9576105e861100f565b5b021790555080600401543414610634576040517f08c379a000000000000000000000000000000000000000000000000000000000815260040161062b906115b1565b60405180910390fd5b8060060160019054906101000a900473ffffffffffffffffffffffffffffffffffffffff1673ffffffffffffffffffffffffffffffffffffffff166108fc349081150290604051600060405180830381858888f1935050505015801561069e573d6000803e3d6000fd5b507fb398ec266cae176bd0a8d43b35200da0bb13c5620ad5e1663abdc3967a4ee50f82348360060160019054906101000a900473ffffffffffffffffffffffffffffffffffffffff166040516106f6939291906115d1565b60405180910390a17f35872be4c2085eaf9ca9a10d056eefec79968f825846792411ede75f331e9392826002604051610730929190611608565b60405180910390a15050565b600080600083815260200190815260200160002090503373ffffffffffffffffffffffffffffffffffffffff168160000160009054906101000a900473ffffffffffffffffffffffffffffffffffffffff1673ffffffffffffffffffffffffffffffffffffffff16146107e4576040517f08c379a00000000000000000000000000000000000000000000000000000000081526004016107db906116a3565b60405180910390fd5b600060038111156107f8576107f761100f565b5b8160060160009054906101000a900460ff16600381111561081c5761081b61100f565b5b1461085c576040517f08c379a00000000000000000000000000000000000000000000000000000000081526004016108539061170f565b60405180910390fd5b60038160060160006101000a81548160ff021916908360038111156108845761088361100f565b5b02179055507f35872be4c2085eaf9ca9a10d056eefec79968f825846792411ede75f331e93928260036040516108bb929190611608565b60405180910390a15050565b600080600084815260200190815260200160002090503373ffffffffffffffffffffffffffffffffffffffff168160000160009054906101000a900473ffffffffffffffffffffffffffffffffffffffff1673ffffffffffffffffffffffffffffffffffffffff161461096f576040517f08c379a0000000000000000000000000000000000000000000000000000000008152600401610966906117a1565b60405180910390fd5b600060038111156109835761098261100f565b5b8160060160009054906101000a900460ff1660038111156109a7576109a661100f565b5b146109e7576040517f08c379a00000000000000000000000000000000000000000000000000000000081526004016109de90611833565b60405180910390fd5b818160060160016101000a81548173ffffffffffffffffffffffffffffffffffffffff021916908373ffffffffffffffffffffffffffffffffffffffff16021790555060018160060160006101000a81548160ff02191690836003811115610a5257610a5161100f565b5b02179055507f038b6dd13ab376cd96a6924f79dde494c7fbb5ea9f8c950b668d934645995cfd8383604051610a88929190611853565b60405180910390a17f35872be4c2085eaf9ca9a10d056eefec79968f825846792411ede75f331e9392836001604051610ac2929190611608565b60405180910390a1505050565b6000806000848152602001908152602001600020905060006003811115610af957610af861100f565b5b8160060160009054906101000a900460ff166003811115610b1d57610b1c61100f565b5b14610b5d576040517f08c379a0000000000000000000000000000000000000000000000000000000008152600401610b54906118c8565b60405180910390fd5b8060070160003373ffffffffffffffffffffffffffffffffffffffff1673ffffffffffffffffffffffffffffffffffffffff168152602001908152602001600020548211610be0576040517f08c379a0000000000000000000000000000000000000000000000000000000008152600401610bd79061195a565b60405180910390fd5b818160070160003373ffffffffffffffffffffffffffffffffffffffff1673ffffffffffffffffffffffffffffffffffffffff168152602001908152602001600020819055507f0e54eff26401bf69b81b26f60bd85ef47f5d85275c1d268d84f68d6897431c47833384604051610c599392919061197a565b60405180910390a1505050565b60015481565b600080600084815260200190815260200160002060070160008373ffffffffffffffffffffffffffffffffffffffff1673ffffffffffffffffffffffffffffffffffffffff16815260200190815260200160002054905092915050565b600060016000815480929190610cde906119e0565b9190505590503360008083815260200190815260200160002060000160006101000a81548173ffffffffffffffffffffffffffffffffffffffff021916908373ffffffffffffffffffffffffffffffffffffffff160217905550856000808381526020019081526020016000206001019081610d5a9190611bd4565b50846000808381526020019081526020016000206002019081610d7d9190611bd4565b50836000808381526020019081526020016000206003019081610da09190611bd4565b508260008083815260200190815260200160002060040181905550816000808381526020019081526020016000206005019081610ddd9190611bd4565b50600080600083815260200190815260200160002060060160006101000a81548160ff02191690836003811115610e1757610e1661100f565b5b0217905550600080600083815260200190815260200160002060060160016101000a81548173ffffffffffffffffffffffffffffffffffffffff021916908373ffffffffffffffffffffffffffffffffffffffff1602179055507f3c3fbb6a154e75fbef89d966d453c10b2ecc4dba66a0b8a755d720fae33a8fda8133888587604051610ea8959493929190611ca6565b60405180910390a1505050505050565b6000604051905090565b600080fd5b600080fd5b6000819050919050565b610edf81610ecc565b8114610eea57600080fd5b50565b600081359050610efc81610ed6565b92915050565b600060208284031215610f1857610f17610ec2565b5b6000610f2684828501610eed565b91505092915050565b600073ffffffffffffffffffffffffffffffffffffffff82169050919050565b6000610f5a82610f2f565b9050919050565b610f6a81610f4f565b82525050565b600081519050919050565b600082825260208201905092915050565b60005b83811015610faa578082015181840152602081019050610f8f565b60008484015250505050565b6000601f19601f8301169050919050565b6000610fd282610f70565b610fdc8185610f7b565b9350610fec818560208601610f8c565b610ff581610fb6565b840191505092915050565b61100981610ecc565b82525050565b7f4e487b7100000000000000000000000000000000000000000000000000000000600052602160045260246000fd5b6004811061104f5761104e61100f565b5b50565b60008190506110608261103e565b919050565b600061107082611052565b9050919050565b61108081611065565b82525050565b60006101008201905061109c600083018b610f61565b81810360208301526110ae818a610fc7565b905081810360408301526110c28189610fc7565b905081810360608301526110d68188610fc7565b90506110e56080830187611000565b81810360a08301526110f78186610fc7565b905061110660c0830185611077565b61111360e0830184610f61565b9998505050505050505050565b61112981610f4f565b811461113457600080fd5b50565b60008135905061114681611120565b92915050565b6000806040838503121561116357611162610ec2565b5b600061117185828601610eed565b925050602061118285828601611137565b9150509250929050565b600080604083850312156111a3576111a2610ec2565b5b60006111b185828601610eed565b92505060206111c285828601610eed565b9150509250929050565b60006020820190506111e16000830184611000565b92915050565b600080fd5b600080fd5b7f4e487b7100000000000000000000000000000000000000000000000000000000600052604160045260246000fd5b61122982610fb6565b810181811067ffffffffffffffff82111715611248576112476111f1565b5b80604052505050565b600061125b610eb8565b90506112678282611220565b919050565b600067ffffffffffffffff821115611287576112866111f1565b5b61129082610fb6565b9050602081019050919050565b82818337600083830152505050565b60006112bf6112ba8461126c565b611251565b9050828152602081018484840111156112db576112da6111ec565b5b6112e684828561129d565b509392505050565b600082601f830112611303576113026111e7565b5b81356113138482602086016112ac565b91505092915050565b600080600080600060a0868803121561133857611337610ec2565b5b600086013567ffffffffffffffff81111561135657611355610ec7565b5b611362888289016112ee565b955050602086013567ffffffffffffffff81111561138357611382610ec7565b5b61138f888289016112ee565b945050604086013567ffffffffffffffff8111156113b0576113af610ec7565b5b6113bc888289016112ee565b93505060606113cd88828901610eed565b925050608086013567ffffffffffffffff8111156113ee576113ed610ec7565b5b6113fa888289016112ee565b9150509295509295909350565b7f4e487b7100000000000000000000000000000000000000000000000000000000600052602260045260246000fd5b6000600282049050600182168061144e57607f821691505b60208210810361146157611460611407565b5b50919050565b7f4f6e6c7920636c69656e742063616e20636f6d706c657465207468652070726f60008201527f6a65637400000000000000000000000000000000000000000000000000000000602082015250565b60006114c3602483610f7b565b91506114ce82611467565b604082019050919050565b600060208201905081810360008301526114f2816114b6565b9050919050565b7f50726f6a656374206973206e6f7420696e2070726f6772657373000000000000600082015250565b600061152f601a83610f7b565b915061153a826114f9565b602082019050919050565b6000602082019050818103600083015261155e81611522565b9050919050565b7f496e636f7272656374207061796d656e7420616d6f756e740000000000000000600082015250565b600061159b601883610f7b565b91506115a682611565565b602082019050919050565b600060208201905081810360008301526115ca8161158e565b9050919050565b60006060820190506115e66000830186611000565b6115f36020830185611000565b6116006040830184610f61565b949350505050565b600060408201905061161d6000830185611000565b61162a6020830184611077565b9392505050565b7f4f6e6c7920636c69656e742063616e2063616e63656c207468652070726f6a6560008201527f6374000000000000000000000000000000000000000000000000000000000000602082015250565b600061168d602283610f7b565b915061169882611631565b604082019050919050565b600060208201905081810360008301526116bc81611680565b9050919050565b7f50726f6a656374206973206e6f74206f70656e00000000000000000000000000600082015250565b60006116f9601383610f7b565b9150611704826116c3565b602082019050919050565b60006020820190508181036000830152611728816116ec565b9050919050565b7f4f6e6c7920636c69656e742063616e2073656c656374206120667265656c616e60008201527f6365720000000000000000000000000000000000000000000000000000000000602082015250565b600061178b602383610f7b565b91506117968261172f565b604082019050919050565b600060208201905081810360008301526117ba8161177e565b9050919050565b7f50726f6a656374206973206e6f74206f70656e20666f7220667265656c616e6360008201527f65722073656c656374696f6e0000000000000000000000000000000000000000602082015250565b600061181d602c83610f7b565b9150611828826117c1565b604082019050919050565b6000602082019050818103600083015261184c81611810565b9050919050565b60006040820190506118686000830185611000565b6118756020830184610f61565b9392505050565b7f50726f6a656374206973206e6f74206f70656e20666f722062696464696e6700600082015250565b60006118b2601f83610f7b565b91506118bd8261187c565b602082019050919050565b600060208201905081810360008301526118e1816118a5565b9050919050565b7f596f757220626964206d75737420626520686967686572207468616e2074686560008201527f2063757272656e74206269640000000000000000000000000000000000000000602082015250565b6000611944602c83610f7b565b915061194f826118e8565b604082019050919050565b6000602082019050818103600083015261197381611937565b9050919050565b600060608201905061198f6000830186611000565b61199c6020830185610f61565b6119a96040830184611000565b949350505050565b7f4e487b7100000000000000000000000000000000000000000000000000000000600052601160045260246000fd5b60006119eb82610ecc565b91507fffffffffffffffffffffffffffffffffffffffffffffffffffffffffffffffff8203611a1d57611a1c6119b1565b5b600182019050919050565b60008190508160005260206000209050919050565b60006020601f8301049050919050565b600082821b905092915050565b600060088302611a8a7fffffffffffffffffffffffffffffffffffffffffffffffffffffffffffffffff82611a4d565b611a948683611a4d565b95508019841693508086168417925050509392505050565b6000819050919050565b6000611ad1611acc611ac784610ecc565b611aac565b610ecc565b9050919050565b6000819050919050565b611aeb83611ab6565b611aff611af782611ad8565b848454611a5a565b825550505050565b600090565b611b14611b07565b611b1f818484611ae2565b505050565b5b81811015611b4357611b38600082611b0c565b600181019050611b25565b5050565b601f821115611b8857611b5981611a28565b611b6284611a3d565b81016020851015611b71578190505b611b85611b7d85611a3d565b830182611b24565b50505b505050565b600082821c905092915050565b6000611bab60001984600802611b8d565b1980831691505092915050565b6000611bc48383611b9a565b9150826002028217905092915050565b611bdd82610f70565b67ffffffffffffffff811115611bf657611bf56111f1565b5b611c008254611436565b611c0b828285611b47565b600060209050601f831160018114611c3e5760008415611c2c578287015190505b611c368582611bb8565b865550611c9e565b601f198416611c4c86611a28565b60005b82811015611c7457848901518255600182019150602085019450602081019050611c4f565b86831015611c915784890151611c8d601f891682611b9a565b8355505b6001600288020188555050505b505050505050565b600060a082019050611cbb6000830188611000565b611cc86020830187610f61565b8181036040830152611cda8186610fc7565b90508181036060830152611cee8185610fc7565b9050611cfd6080830184611000565b969550505050505056fea2646970667358221220e54646c73fa1e27e133dbd409af5f162a911efbfcf0ab2d83aca06a8b7a88b1b64736f6c63430008130033",
  "immutableReferences": {},
  "source": "// SPDX-License-Identifier: MIT\npragma solidity 0.8.19;\n\ncontract Bidding {\n    enum ProjectStatus { Open, InProgress, Completed, Canceled }\n\n    struct Project {\n        address client;\n        string name;\n        string outline;\n        string description;\n        uint expectedPay;\n        string category;\n        ProjectStatus status;\n        address selectedFreelancer;\n        mapping(address => uint) bids; // Freelancer address => Bid amount\n    }\n\n    mapping(uint => Project) public projects;\n    uint public numProjects;\n\n    event ProjectCreated(uint projectId, address client, string name, string category, uint expectedPay);\n    event BidPlaced(uint projectId, address bidder, uint amount);\n    event FreelancerSelected(uint projectId, address freelancer);\n    event ProjectStatusChanged(uint projectId, ProjectStatus status);\n    event PaymentReleased(uint projectId, uint amount, address freelancer);\n\n    function createProject(\n        string memory _name,\n        string memory _outline,\n        string memory _description,\n        uint _expectedPay,\n        string memory _category\n    ) external {\n        uint projectId = numProjects++;\n        projects[projectId].client = msg.sender;\n        projects[projectId].name = _name;\n        projects[projectId].outline = _outline;\n        projects[projectId].description = _description;\n        projects[projectId].expectedPay = _expectedPay;\n        projects[projectId].category = _category;\n        projects[projectId].status = ProjectStatus.Open;\n        projects[projectId].selectedFreelancer = address(0);\n\n        emit ProjectCreated(projectId, msg.sender, _name, _category, _expectedPay);\n    }\n\n    function placeBid(uint projectId, uint amount) external {\n        Project storage project = projects[projectId];\n        require(project.status == ProjectStatus.Open, \"Project is not open for bidding\");\n        require(amount > project.bids[msg.sender], \"Your bid must be higher than the current bid\");\n        \n        project.bids[msg.sender] = amount;\n        \n        emit BidPlaced(projectId, msg.sender, amount);\n    }\n\n    function selectFreelancer(uint projectId, address freelancer) external {\n        Project storage project = projects[projectId];\n        require(project.client == msg.sender, \"Only client can select a freelancer\");\n        require(project.status == ProjectStatus.Open, \"Project is not open for freelancer selection\");\n\n        project.selectedFreelancer = freelancer;\n        project.status = ProjectStatus.InProgress;\n\n        emit FreelancerSelected(projectId, freelancer);\n        emit ProjectStatusChanged(projectId, ProjectStatus.InProgress);\n    }\n\n    function completeProject(uint projectId) external payable {\n        Project storage project = projects[projectId];\n        require(project.client == msg.sender, \"Only client can complete the project\");\n        require(project.status == ProjectStatus.InProgress, \"Project is not in progress\");\n\n        project.status = ProjectStatus.Completed;\n\n        // Transfer payment to freelancer\n        require(msg.value == project.expectedPay, \"Incorrect payment amount\");\n\n        payable(project.selectedFreelancer).transfer(msg.value);\n\n        emit PaymentReleased(projectId, msg.value, project.selectedFreelancer);\n        emit ProjectStatusChanged(projectId, ProjectStatus.Completed);\n    }\n\n    function cancelProject(uint projectId) external {\n        Project storage project = projects[projectId];\n        require(project.client == msg.sender, \"Only client can cancel the project\");\n        require(project.status == ProjectStatus.Open, \"Project is not open\");\n\n        project.status = ProjectStatus.Canceled;\n\n        emit ProjectStatusChanged(projectId, ProjectStatus.Canceled);\n    }\n\n    function getBidAmount(uint projectId, address bidder) external view returns (uint) {\n        return projects[projectId].bids[bidder];\n    }\n}\n",
  "sourcePath": "/home/razalak/ethlancew3/contracts/Bidding.sol",
  "compiler": {
    "name": "solc",
    "version": "0.8.19+commit.7dd6d404.Emscripten.clang"
  },
  "schemaVersion": "3.4.16",
  "updatedAt": "2024-05-03T07:03:16.612Z",
  "networkType": "ethereum",
  "devdoc": {
    "kind": "dev",
    "methods": {},
    "version": 1
  },
  "userdoc": {
    "kind": "user",
    "methods": {},
    "version": 1
  }
}