{
  "contractName": "PlaceBid",
  "abi": [
    {
      "anonymous": false,
      "inputs": [
        {
          "indexed": true,
          "internalType": "string",
          "name": "projectId",
          "type": "string"
        },
        {
          "indexed": true,
          "internalType": "address",
          "name": "clientAddress",
          "type": "address"
        },
        {
          "indexed": true,
          "internalType": "address",
          "name": "freelancerAddress",
          "type": "address"
        },
        {
          "indexed": false,
          "internalType": "string",
          "name": "proposal",
          "type": "string"
        },
        {
          "indexed": false,
          "internalType": "uint256",
          "name": "deliveryTime",
          "type": "uint256"
        },
        {
          "indexed": false,
          "internalType": "uint256",
          "name": "bidAmount",
          "type": "uint256"
        },
        {
          "indexed": false,
          "internalType": "enum PlaceBid.BidStatus",
          "name": "statusFlag",
          "type": "uint8"
        }
      ],
      "name": "BidPlaced",
      "type": "event"
    },
    {
      "inputs": [
        {
          "internalType": "string",
          "name": "",
          "type": "string"
        },
        {
          "internalType": "uint256",
          "name": "",
          "type": "uint256"
        }
      ],
      "name": "bids",
      "outputs": [
        {
          "internalType": "string",
          "name": "projectId",
          "type": "string"
        },
        {
          "internalType": "address",
          "name": "clientAddress",
          "type": "address"
        },
        {
          "internalType": "address",
          "name": "freelancerAddress",
          "type": "address"
        },
        {
          "internalType": "string",
          "name": "proposal",
          "type": "string"
        },
        {
          "internalType": "uint256",
          "name": "deliveryTime",
          "type": "uint256"
        },
        {
          "internalType": "uint256",
          "name": "bidAmount",
          "type": "uint256"
        },
        {
          "internalType": "enum PlaceBid.BidStatus",
          "name": "statusFlag",
          "type": "uint8"
        }
      ],
      "stateMutability": "view",
      "type": "function",
      "constant": true
    },
    {
      "inputs": [
        {
          "internalType": "string",
          "name": "projectId",
          "type": "string"
        },
        {
          "internalType": "address",
          "name": "__clientAddress",
          "type": "address"
        },
        {
          "internalType": "string",
          "name": "_proposal",
          "type": "string"
        },
        {
          "internalType": "uint256",
          "name": "_deliveryTime",
          "type": "uint256"
        },
        {
          "internalType": "uint256",
          "name": "_bidAmount",
          "type": "uint256"
        },
        {
          "internalType": "enum PlaceBid.BidStatus",
          "name": "_statusFlag",
          "type": "uint8"
        }
      ],
      "name": "placeBid",
      "outputs": [],
      "stateMutability": "nonpayable",
      "type": "function"
    },
    {
      "inputs": [
        {
          "internalType": "string",
          "name": "projectId",
          "type": "string"
        },
        {
          "internalType": "uint256",
          "name": "index",
          "type": "uint256"
        }
      ],
      "name": "getBid",
      "outputs": [
        {
          "internalType": "address",
          "name": "",
          "type": "address"
        },
        {
          "internalType": "address",
          "name": "",
          "type": "address"
        },
        {
          "internalType": "string",
          "name": "",
          "type": "string"
        },
        {
          "internalType": "uint256",
          "name": "",
          "type": "uint256"
        },
        {
          "internalType": "uint256",
          "name": "",
          "type": "uint256"
        },
        {
          "internalType": "enum PlaceBid.BidStatus",
          "name": "",
          "type": "uint8"
        }
      ],
      "stateMutability": "view",
      "type": "function",
      "constant": true
    },
    {
      "inputs": [
        {
          "internalType": "string",
          "name": "projectId",
          "type": "string"
        }
      ],
      "name": "getBidsCount",
      "outputs": [
        {
          "internalType": "uint256",
          "name": "",
          "type": "uint256"
        }
      ],
      "stateMutability": "view",
      "type": "function",
      "constant": true
    },
    {
      "inputs": [
        {
          "internalType": "string",
          "name": "projectId",
          "type": "string"
        },
        {
          "internalType": "uint256",
          "name": "index",
          "type": "uint256"
        }
      ],
      "name": "getBidData",
      "outputs": [
        {
          "internalType": "address",
          "name": "",
          "type": "address"
        },
        {
          "internalType": "address",
          "name": "",
          "type": "address"
        },
        {
          "internalType": "string",
          "name": "",
          "type": "string"
        },
        {
          "internalType": "uint256",
          "name": "",
          "type": "uint256"
        },
        {
          "internalType": "uint256",
          "name": "",
          "type": "uint256"
        },
        {
          "internalType": "enum PlaceBid.BidStatus",
          "name": "",
          "type": "uint8"
        }
      ],
      "stateMutability": "view",
      "type": "function",
      "constant": true
    }
  ],
  "bytecode": "0x608060405234801561001057600080fd5b50611452806100206000396000f3fe608060405234801561001057600080fd5b50600436106100575760003560e01c80634165728d1461005c5780634b2a15f81461009257806367281dc5146100ae578063a59f715c146100de578063f6976c3d14610113575b600080fd5b61007660048036038101906100719190610c6f565b610148565b6040516100899796959493929190610e11565b60405180910390f35b6100ac60048036038101906100a79190610edf565b61031a565b005b6100c860048036038101906100c39190610fa4565b610561565b6040516100d59190610fed565b60405180910390f35b6100f860048036038101906100f39190610c6f565b61058b565b60405161010a96959493929190611008565b60405180910390f35b61012d60048036038101906101289190610c6f565b610835565b60405161013f96959493929190611008565b60405180910390f35b600082805160208101820180518482526020830160208501208183528095505050505050818154811061017a57600080fd5b90600052602060002090600702016000915091505080600001805461019e9061109f565b80601f01602080910402602001604051908101604052809291908181526020018280546101ca9061109f565b80156102175780601f106101ec57610100808354040283529160200191610217565b820191906000526020600020905b8154815290600101906020018083116101fa57829003601f168201915b5050505050908060010160009054906101000a900473ffffffffffffffffffffffffffffffffffffffff16908060020160009054906101000a900473ffffffffffffffffffffffffffffffffffffffff16908060030180546102789061109f565b80601f01602080910402602001604051908101604052809291908181526020018280546102a49061109f565b80156102f15780601f106102c6576101008083540402835291602001916102f1565b820191906000526020600020905b8154815290600101906020018083116102d457829003601f168201915b5050505050908060040154908060050154908060060160009054906101000a900460ff16905087565b60006040518060e001604052808881526020018773ffffffffffffffffffffffffffffffffffffffff1681526020013373ffffffffffffffffffffffffffffffffffffffff16815260200186815260200185815260200184815260200183600281111561038a57610389610d9a565b5b815250905060008760405161039f919061110c565b908152602001604051809103902081908060018154018082558091505060019003906000526020600020906007020160009091909190915060008201518160000190816103ec91906112cf565b5060208201518160010160006101000a81548173ffffffffffffffffffffffffffffffffffffffff021916908373ffffffffffffffffffffffffffffffffffffffff16021790555060408201518160020160006101000a81548173ffffffffffffffffffffffffffffffffffffffff021916908373ffffffffffffffffffffffffffffffffffffffff160217905550606082015181600301908161049091906112cf565b506080820151816004015560a0820151816005015560c08201518160060160006101000a81548160ff021916908360028111156104d0576104cf610d9a565b5b021790555050503373ffffffffffffffffffffffffffffffffffffffff168673ffffffffffffffffffffffffffffffffffffffff1688604051610513919061110c565b60405180910390207f1d8d8301fcc1793a03a6a59c72cf2ddd4da265f796d4c209514efd7cacbe4fd78888888860405161055094939291906113a1565b60405180910390a450505050505050565b60008082604051610572919061110c565b9081526020016040518091039020805490509050919050565b60008060606000806000806000896040516105a6919061110c565b908152602001604051809103902088815481106105c6576105c56113ed565b5b90600052602060002090600702016040518060e00160405290816000820180546105ef9061109f565b80601f016020809104026020016040519081016040528092919081815260200182805461061b9061109f565b80156106685780601f1061063d57610100808354040283529160200191610668565b820191906000526020600020905b81548152906001019060200180831161064b57829003601f168201915b505050505081526020016001820160009054906101000a900473ffffffffffffffffffffffffffffffffffffffff1673ffffffffffffffffffffffffffffffffffffffff1673ffffffffffffffffffffffffffffffffffffffff1681526020016002820160009054906101000a900473ffffffffffffffffffffffffffffffffffffffff1673ffffffffffffffffffffffffffffffffffffffff1673ffffffffffffffffffffffffffffffffffffffff16815260200160038201805461072d9061109f565b80601f01602080910402602001604051908101604052809291908181526020018280546107599061109f565b80156107a65780601f1061077b576101008083540402835291602001916107a6565b820191906000526020600020905b81548152906001019060200180831161078957829003601f168201915b5050505050815260200160048201548152602001600582015481526020016006820160009054906101000a900460ff1660028111156107e8576107e7610d9a565b5b60028111156107fa576107f9610d9a565b5b81525050905080602001518160400151826060015183608001518460a001518560c00151965096509650965096509650509295509295509295565b6000806060600080600080600089604051610850919061110c565b908152602001604051809103902088815481106108705761086f6113ed565b5b90600052602060002090600702016040518060e00160405290816000820180546108999061109f565b80601f01602080910402602001604051908101604052809291908181526020018280546108c59061109f565b80156109125780601f106108e757610100808354040283529160200191610912565b820191906000526020600020905b8154815290600101906020018083116108f557829003601f168201915b505050505081526020016001820160009054906101000a900473ffffffffffffffffffffffffffffffffffffffff1673ffffffffffffffffffffffffffffffffffffffff1673ffffffffffffffffffffffffffffffffffffffff1681526020016002820160009054906101000a900473ffffffffffffffffffffffffffffffffffffffff1673ffffffffffffffffffffffffffffffffffffffff1673ffffffffffffffffffffffffffffffffffffffff1681526020016003820180546109d79061109f565b80601f0160208091040260200160405190810160405280929190818152602001828054610a039061109f565b8015610a505780601f10610a2557610100808354040283529160200191610a50565b820191906000526020600020905b815481529060010190602001808311610a3357829003601f168201915b5050505050815260200160048201548152602001600582015481526020016006820160009054906101000a900460ff166002811115610a9257610a91610d9a565b5b6002811115610aa457610aa3610d9a565b5b81525050905080602001518160400151826060015183608001518460a001518560c00151965096509650965096509650509295509295509295565b6000604051905090565b600080fd5b600080fd5b600080fd5b600080fd5b6000601f19601f8301169050919050565b7f4e487b7100000000000000000000000000000000000000000000000000000000600052604160045260246000fd5b610b4682610afd565b810181811067ffffffffffffffff82111715610b6557610b64610b0e565b5b80604052505050565b6000610b78610adf565b9050610b848282610b3d565b919050565b600067ffffffffffffffff821115610ba457610ba3610b0e565b5b610bad82610afd565b9050602081019050919050565b82818337600083830152505050565b6000610bdc610bd784610b89565b610b6e565b905082815260208101848484011115610bf857610bf7610af8565b5b610c03848285610bba565b509392505050565b600082601f830112610c2057610c1f610af3565b5b8135610c30848260208601610bc9565b91505092915050565b6000819050919050565b610c4c81610c39565b8114610c5757600080fd5b50565b600081359050610c6981610c43565b92915050565b60008060408385031215610c8657610c85610ae9565b5b600083013567ffffffffffffffff811115610ca457610ca3610aee565b5b610cb085828601610c0b565b9250506020610cc185828601610c5a565b9150509250929050565b600081519050919050565b600082825260208201905092915050565b60005b83811015610d05578082015181840152602081019050610cea565b60008484015250505050565b6000610d1c82610ccb565b610d268185610cd6565b9350610d36818560208601610ce7565b610d3f81610afd565b840191505092915050565b600073ffffffffffffffffffffffffffffffffffffffff82169050919050565b6000610d7582610d4a565b9050919050565b610d8581610d6a565b82525050565b610d9481610c39565b82525050565b7f4e487b7100000000000000000000000000000000000000000000000000000000600052602160045260246000fd5b60038110610dda57610dd9610d9a565b5b50565b6000819050610deb82610dc9565b919050565b6000610dfb82610ddd565b9050919050565b610e0b81610df0565b82525050565b600060e0820190508181036000830152610e2b818a610d11565b9050610e3a6020830189610d7c565b610e476040830188610d7c565b8181036060830152610e598187610d11565b9050610e686080830186610d8b565b610e7560a0830185610d8b565b610e8260c0830184610e02565b98975050505050505050565b610e9781610d6a565b8114610ea257600080fd5b50565b600081359050610eb481610e8e565b92915050565b60038110610ec757600080fd5b50565b600081359050610ed981610eba565b92915050565b60008060008060008060c08789031215610efc57610efb610ae9565b5b600087013567ffffffffffffffff811115610f1a57610f19610aee565b5b610f2689828a01610c0b565b9650506020610f3789828a01610ea5565b955050604087013567ffffffffffffffff811115610f5857610f57610aee565b5b610f6489828a01610c0b565b9450506060610f7589828a01610c5a565b9350506080610f8689828a01610c5a565b92505060a0610f9789828a01610eca565b9150509295509295509295565b600060208284031215610fba57610fb9610ae9565b5b600082013567ffffffffffffffff811115610fd857610fd7610aee565b5b610fe484828501610c0b565b91505092915050565b60006020820190506110026000830184610d8b565b92915050565b600060c08201905061101d6000830189610d7c565b61102a6020830188610d7c565b818103604083015261103c8187610d11565b905061104b6060830186610d8b565b6110586080830185610d8b565b61106560a0830184610e02565b979650505050505050565b7f4e487b7100000000000000000000000000000000000000000000000000000000600052602260045260246000fd5b600060028204905060018216806110b757607f821691505b6020821081036110ca576110c9611070565b5b50919050565b600081905092915050565b60006110e682610ccb565b6110f081856110d0565b9350611100818560208601610ce7565b80840191505092915050565b600061111882846110db565b915081905092915050565b60008190508160005260206000209050919050565b60006020601f8301049050919050565b600082821b905092915050565b6000600883026111857fffffffffffffffffffffffffffffffffffffffffffffffffffffffffffffffff82611148565b61118f8683611148565b95508019841693508086168417925050509392505050565b6000819050919050565b60006111cc6111c76111c284610c39565b6111a7565b610c39565b9050919050565b6000819050919050565b6111e6836111b1565b6111fa6111f2826111d3565b848454611155565b825550505050565b600090565b61120f611202565b61121a8184846111dd565b505050565b5b8181101561123e57611233600082611207565b600181019050611220565b5050565b601f8211156112835761125481611123565b61125d84611138565b8101602085101561126c578190505b61128061127885611138565b83018261121f565b50505b505050565b600082821c905092915050565b60006112a660001984600802611288565b1980831691505092915050565b60006112bf8383611295565b9150826002028217905092915050565b6112d882610ccb565b67ffffffffffffffff8111156112f1576112f0610b0e565b5b6112fb825461109f565b611306828285611242565b600060209050601f8311600181146113395760008415611327578287015190505b61133185826112b3565b865550611399565b601f19841661134786611123565b60005b8281101561136f5784890151825560018201915060208501945060208101905061134a565b8683101561138c5784890151611388601f891682611295565b8355505b6001600288020188555050505b505050505050565b600060808201905081810360008301526113bb8187610d11565b90506113ca6020830186610d8b565b6113d76040830185610d8b565b6113e46060830184610e02565b95945050505050565b7f4e487b7100000000000000000000000000000000000000000000000000000000600052603260045260246000fdfea2646970667358221220a24db1fea5094aefaf70fce34b5b03ee5a66e8a76d5290f95a5a02e6e036f4b064736f6c63430008130033",
  "immutableReferences": {},
  "source": "// SPDX-License-Identifier: MIT\npragma solidity 0.8.19;\n\ncontract PlaceBid {\n    enum BidStatus { Pending, Accepted, Rejected }\n\n    struct Bid {\n        string projectId;\n        address clientAddress;\n        address freelancerAddress;\n        string proposal;\n        uint deliveryTime;\n        uint bidAmount;\n        BidStatus statusFlag;\n    }\n\n    mapping(string => Bid[]) public bids;\n\n    event BidPlaced(string indexed projectId, address indexed clientAddress, address indexed freelancerAddress, string proposal, uint deliveryTime, uint bidAmount, BidStatus statusFlag);\n\n    function placeBid(string memory projectId, address __clientAddress, string memory _proposal, uint _deliveryTime, uint _bidAmount, BidStatus _statusFlag) external {\n        Bid memory newBid = Bid({\n            projectId: projectId,\n            clientAddress: __clientAddress,\n            freelancerAddress: msg.sender,\n            proposal: _proposal,\n            deliveryTime: _deliveryTime,\n            bidAmount: _bidAmount,\n            statusFlag: _statusFlag\n        });\n\n        bids[projectId].push(newBid);\n        emit BidPlaced(projectId, __clientAddress, msg.sender, _proposal, _deliveryTime, _bidAmount, _statusFlag);\n    }\n\n    function getBid(string memory projectId, uint index) external view returns (address, address, string memory, uint, uint, BidStatus) {\n        Bid memory bid = bids[projectId][index];\n        return (bid.clientAddress, bid.freelancerAddress, bid.proposal, bid.deliveryTime, bid.bidAmount, bid.statusFlag);\n    }\n\n    function getBidsCount(string memory projectId) external view returns (uint) {\n        return bids[projectId].length;\n    }\n\n    function getBidData(string memory projectId, uint index) external view returns (address, address, string memory, uint, uint, BidStatus) {\n        Bid memory bid = bids[projectId][index];\n        return (bid.clientAddress, bid.freelancerAddress, bid.proposal, bid.deliveryTime, bid.bidAmount, bid.statusFlag);\n    }\n}\n",
  "sourcePath": "/home/razalak/ethlancew3/contracts/PlaceBid.sol",
  "compiler": {
    "name": "solc",
    "version": "0.8.19+commit.7dd6d404.Emscripten.clang"
  },
  "schemaVersion": "3.4.16",
  "updatedAt": "2024-05-06T05:19:44.042Z",
  "networkType": "ethereum",
  "devdoc": {
    "kind": "dev",
    "methods": {},
    "version": 1
  },
  "userdoc": {
    "kind": "user",
    "methods": {},
    "version": 1
  }
}