{
  "contractName": "PlaceBid",
  "abi": [
    {
      "anonymous": false,
      "inputs": [
        {
          "indexed": true,
          "internalType": "uint256",
          "name": "projectId",
          "type": "uint256"
        },
        {
          "indexed": true,
          "internalType": "address",
          "name": "clientAddress",
          "type": "address"
        },
        {
          "indexed": true,
          "internalType": "address",
          "name": "freelancerAddress",
          "type": "address"
        },
        {
          "indexed": false,
          "internalType": "string",
          "name": "proposal",
          "type": "string"
        },
        {
          "indexed": false,
          "internalType": "uint256",
          "name": "deliveryTime",
          "type": "uint256"
        },
        {
          "indexed": false,
          "internalType": "uint256",
          "name": "bidAmount",
          "type": "uint256"
        },
        {
          "indexed": false,
          "internalType": "enum PlaceBid.BidStatus",
          "name": "statusFlag",
          "type": "uint8"
        }
      ],
      "name": "BidPlaced",
      "type": "event"
    },
    {
      "inputs": [
        {
          "internalType": "uint256",
          "name": "",
          "type": "uint256"
        },
        {
          "internalType": "uint256",
          "name": "",
          "type": "uint256"
        }
      ],
      "name": "bids",
      "outputs": [
        {
          "internalType": "address",
          "name": "clientAddress",
          "type": "address"
        },
        {
          "internalType": "address",
          "name": "freelancerAddress",
          "type": "address"
        },
        {
          "internalType": "uint256",
          "name": "deliveryTime",
          "type": "uint256"
        },
        {
          "internalType": "string",
          "name": "proposal",
          "type": "string"
        },
        {
          "internalType": "uint256",
          "name": "bidAmount",
          "type": "uint256"
        },
        {
          "internalType": "enum PlaceBid.BidStatus",
          "name": "statusFlag",
          "type": "uint8"
        }
      ],
      "stateMutability": "view",
      "type": "function",
      "constant": true
    },
    {
      "inputs": [
        {
          "internalType": "uint256",
          "name": "projectId",
          "type": "uint256"
        },
        {
          "internalType": "address",
          "name": "_freelancerAddress",
          "type": "address"
        },
        {
          "internalType": "string",
          "name": "_proposal",
          "type": "string"
        },
        {
          "internalType": "uint256",
          "name": "_deliveryTime",
          "type": "uint256"
        },
        {
          "internalType": "uint256",
          "name": "_bidAmount",
          "type": "uint256"
        },
        {
          "internalType": "enum PlaceBid.BidStatus",
          "name": "_statusFlag",
          "type": "uint8"
        }
      ],
      "name": "placeBid",
      "outputs": [],
      "stateMutability": "nonpayable",
      "type": "function"
    },
    {
      "inputs": [
        {
          "internalType": "uint256",
          "name": "projectId",
          "type": "uint256"
        },
        {
          "internalType": "uint256",
          "name": "index",
          "type": "uint256"
        }
      ],
      "name": "getBid",
      "outputs": [
        {
          "internalType": "address",
          "name": "",
          "type": "address"
        },
        {
          "internalType": "address",
          "name": "",
          "type": "address"
        },
        {
          "internalType": "string",
          "name": "",
          "type": "string"
        },
        {
          "internalType": "uint256",
          "name": "",
          "type": "uint256"
        },
        {
          "internalType": "uint256",
          "name": "",
          "type": "uint256"
        },
        {
          "internalType": "enum PlaceBid.BidStatus",
          "name": "",
          "type": "uint8"
        }
      ],
      "stateMutability": "view",
      "type": "function",
      "constant": true
    },
    {
      "inputs": [
        {
          "internalType": "uint256",
          "name": "projectId",
          "type": "uint256"
        }
      ],
      "name": "getBidsCount",
      "outputs": [
        {
          "internalType": "uint256",
          "name": "",
          "type": "uint256"
        }
      ],
      "stateMutability": "view",
      "type": "function",
      "constant": true
    },
    {
      "inputs": [
        {
          "internalType": "uint256",
          "name": "projectId",
          "type": "uint256"
        },
        {
          "internalType": "uint256",
          "name": "index",
          "type": "uint256"
        }
      ],
      "name": "getBidData",
      "outputs": [
        {
          "internalType": "address",
          "name": "",
          "type": "address"
        },
        {
          "internalType": "address",
          "name": "",
          "type": "address"
        },
        {
          "internalType": "string",
          "name": "",
          "type": "string"
        },
        {
          "internalType": "uint256",
          "name": "",
          "type": "uint256"
        },
        {
          "internalType": "uint256",
          "name": "",
          "type": "uint256"
        },
        {
          "internalType": "enum PlaceBid.BidStatus",
          "name": "",
          "type": "uint8"
        }
      ],
      "stateMutability": "view",
      "type": "function",
      "constant": true
    }
  ],
  "bytecode": "0x608060405234801561001057600080fd5b5061116d806100206000396000f3fe608060405234801561001057600080fd5b50600436106100575760003560e01c806328784c401461005c57806329f9d95c146100785780634008f9c0146100ad578063582c7ffd146100dd5780637b3c4baa14610112575b600080fd5b61007660048036038101906100719190610ac9565b610147565b005b610092600480360381019061008d9190610b72565b610351565b6040516100a496959493929190610cc6565b60405180910390f35b6100c760048036038101906100c29190610d2e565b61055d565b6040516100d49190610d5b565b60405180910390f35b6100f760048036038101906100f29190610b72565b61057c565b60405161010996959493929190610cc6565b60405180910390f35b61012c60048036038101906101279190610b72565b610788565b60405161013e96959493929190610d76565b60405180910390f35b60006040518060c001604052803373ffffffffffffffffffffffffffffffffffffffff1681526020018773ffffffffffffffffffffffffffffffffffffffff1681526020018581526020018681526020018481526020018360028111156101b1576101b0610c4f565b5b815250905060008088815260200190815260200160002081908060018154018082558091505060019003906000526020600020906006020160009091909190915060008201518160000160006101000a81548173ffffffffffffffffffffffffffffffffffffffff021916908373ffffffffffffffffffffffffffffffffffffffff16021790555060208201518160010160006101000a81548173ffffffffffffffffffffffffffffffffffffffff021916908373ffffffffffffffffffffffffffffffffffffffff16021790555060408201518160020155606082015181600301908161029f9190610fea565b506080820151816004015560a08201518160050160006101000a81548160ff021916908360028111156102d5576102d4610c4f565b5b021790555050508573ffffffffffffffffffffffffffffffffffffffff163373ffffffffffffffffffffffffffffffffffffffff16887fccdfbe4e0a9cd5bc3ed6fa8b4aadf5bdb14ecb45a978d5b9638c6ea36f2b04d38888888860405161034094939291906110bc565b60405180910390a450505050505050565b60008060606000806000806000808a815260200190815260200160002088815481106103805761037f611108565b5b90600052602060002090600602016040518060c00160405290816000820160009054906101000a900473ffffffffffffffffffffffffffffffffffffffff1673ffffffffffffffffffffffffffffffffffffffff1673ffffffffffffffffffffffffffffffffffffffff1681526020016001820160009054906101000a900473ffffffffffffffffffffffffffffffffffffffff1673ffffffffffffffffffffffffffffffffffffffff1673ffffffffffffffffffffffffffffffffffffffff1681526020016002820154815260200160038201805461045f90610e0d565b80601f016020809104026020016040519081016040528092919081815260200182805461048b90610e0d565b80156104d85780601f106104ad576101008083540402835291602001916104d8565b820191906000526020600020905b8154815290600101906020018083116104bb57829003601f168201915b50505050508152602001600482015481526020016005820160009054906101000a900460ff1660028111156105105761050f610c4f565b5b600281111561052257610521610c4f565b5b815250509050806000015181602001518260600151836040015184608001518560a00151965096509650965096509650509295509295509295565b6000806000838152602001908152602001600020805490509050919050565b60008060606000806000806000808a815260200190815260200160002088815481106105ab576105aa611108565b5b90600052602060002090600602016040518060c00160405290816000820160009054906101000a900473ffffffffffffffffffffffffffffffffffffffff1673ffffffffffffffffffffffffffffffffffffffff1673ffffffffffffffffffffffffffffffffffffffff1681526020016001820160009054906101000a900473ffffffffffffffffffffffffffffffffffffffff1673ffffffffffffffffffffffffffffffffffffffff1673ffffffffffffffffffffffffffffffffffffffff1681526020016002820154815260200160038201805461068a90610e0d565b80601f01602080910402602001604051908101604052809291908181526020018280546106b690610e0d565b80156107035780601f106106d857610100808354040283529160200191610703565b820191906000526020600020905b8154815290600101906020018083116106e657829003601f168201915b50505050508152602001600482015481526020016005820160009054906101000a900460ff16600281111561073b5761073a610c4f565b5b600281111561074d5761074c610c4f565b5b815250509050806000015181602001518260600151836040015184608001518560a00151965096509650965096509650509295509295509295565b600060205281600052604060002081815481106107a457600080fd5b9060005260206000209060060201600091509150508060000160009054906101000a900473ffffffffffffffffffffffffffffffffffffffff16908060010160009054906101000a900473ffffffffffffffffffffffffffffffffffffffff169080600201549080600301805461081a90610e0d565b80601f016020809104026020016040519081016040528092919081815260200182805461084690610e0d565b80156108935780601f1061086857610100808354040283529160200191610893565b820191906000526020600020905b81548152906001019060200180831161087657829003601f168201915b5050505050908060040154908060050160009054906101000a900460ff16905086565b6000604051905090565b600080fd5b600080fd5b6000819050919050565b6108dd816108ca565b81146108e857600080fd5b50565b6000813590506108fa816108d4565b92915050565b600073ffffffffffffffffffffffffffffffffffffffff82169050919050565b600061092b82610900565b9050919050565b61093b81610920565b811461094657600080fd5b50565b60008135905061095881610932565b92915050565b600080fd5b600080fd5b6000601f19601f8301169050919050565b7f4e487b7100000000000000000000000000000000000000000000000000000000600052604160045260246000fd5b6109b182610968565b810181811067ffffffffffffffff821117156109d0576109cf610979565b5b80604052505050565b60006109e36108b6565b90506109ef82826109a8565b919050565b600067ffffffffffffffff821115610a0f57610a0e610979565b5b610a1882610968565b9050602081019050919050565b82818337600083830152505050565b6000610a47610a42846109f4565b6109d9565b905082815260208101848484011115610a6357610a62610963565b5b610a6e848285610a25565b509392505050565b600082601f830112610a8b57610a8a61095e565b5b8135610a9b848260208601610a34565b91505092915050565b60038110610ab157600080fd5b50565b600081359050610ac381610aa4565b92915050565b60008060008060008060c08789031215610ae657610ae56108c0565b5b6000610af489828a016108eb565b9650506020610b0589828a01610949565b955050604087013567ffffffffffffffff811115610b2657610b256108c5565b5b610b3289828a01610a76565b9450506060610b4389828a016108eb565b9350506080610b5489828a016108eb565b92505060a0610b6589828a01610ab4565b9150509295509295509295565b60008060408385031215610b8957610b886108c0565b5b6000610b97858286016108eb565b9250506020610ba8858286016108eb565b9150509250929050565b610bbb81610920565b82525050565b600081519050919050565b600082825260208201905092915050565b60005b83811015610bfb578082015181840152602081019050610be0565b60008484015250505050565b6000610c1282610bc1565b610c1c8185610bcc565b9350610c2c818560208601610bdd565b610c3581610968565b840191505092915050565b610c49816108ca565b82525050565b7f4e487b7100000000000000000000000000000000000000000000000000000000600052602160045260246000fd5b60038110610c8f57610c8e610c4f565b5b50565b6000819050610ca082610c7e565b919050565b6000610cb082610c92565b9050919050565b610cc081610ca5565b82525050565b600060c082019050610cdb6000830189610bb2565b610ce86020830188610bb2565b8181036040830152610cfa8187610c07565b9050610d096060830186610c40565b610d166080830185610c40565b610d2360a0830184610cb7565b979650505050505050565b600060208284031215610d4457610d436108c0565b5b6000610d52848285016108eb565b91505092915050565b6000602082019050610d706000830184610c40565b92915050565b600060c082019050610d8b6000830189610bb2565b610d986020830188610bb2565b610da56040830187610c40565b8181036060830152610db78186610c07565b9050610dc66080830185610c40565b610dd360a0830184610cb7565b979650505050505050565b7f4e487b7100000000000000000000000000000000000000000000000000000000600052602260045260246000fd5b60006002820490506001821680610e2557607f821691505b602082108103610e3857610e37610dde565b5b50919050565b60008190508160005260206000209050919050565b60006020601f8301049050919050565b600082821b905092915050565b600060088302610ea07fffffffffffffffffffffffffffffffffffffffffffffffffffffffffffffffff82610e63565b610eaa8683610e63565b95508019841693508086168417925050509392505050565b6000819050919050565b6000610ee7610ee2610edd846108ca565b610ec2565b6108ca565b9050919050565b6000819050919050565b610f0183610ecc565b610f15610f0d82610eee565b848454610e70565b825550505050565b600090565b610f2a610f1d565b610f35818484610ef8565b505050565b5b81811015610f5957610f4e600082610f22565b600181019050610f3b565b5050565b601f821115610f9e57610f6f81610e3e565b610f7884610e53565b81016020851015610f87578190505b610f9b610f9385610e53565b830182610f3a565b50505b505050565b600082821c905092915050565b6000610fc160001984600802610fa3565b1980831691505092915050565b6000610fda8383610fb0565b9150826002028217905092915050565b610ff382610bc1565b67ffffffffffffffff81111561100c5761100b610979565b5b6110168254610e0d565b611021828285610f5d565b600060209050601f8311600181146110545760008415611042578287015190505b61104c8582610fce565b8655506110b4565b601f19841661106286610e3e565b60005b8281101561108a57848901518255600182019150602085019450602081019050611065565b868310156110a757848901516110a3601f891682610fb0565b8355505b6001600288020188555050505b505050505050565b600060808201905081810360008301526110d68187610c07565b90506110e56020830186610c40565b6110f26040830185610c40565b6110ff6060830184610cb7565b95945050505050565b7f4e487b7100000000000000000000000000000000000000000000000000000000600052603260045260246000fdfea2646970667358221220b9a4b616eaf042673cf359b16b2154457a180554fa18c93df31cf7c01920834f64736f6c63430008130033",
  "immutableReferences": {},
  "source": "// SPDX-License-Identifier: MIT\npragma solidity 0.8.19;\n\ncontract PlaceBid {\n    enum BidStatus { Pending, Accepted, Rejected }\n\n    struct Bid {\n        address clientAddress;\n        address freelancerAddress;\n        uint256 deliveryTime;\n        string proposal;\n        uint256 bidAmount;\n        BidStatus statusFlag;\n    }\n\n    mapping(uint256 => Bid[]) public bids;\n\n    event BidPlaced(uint256 indexed projectId, address indexed clientAddress, address indexed freelancerAddress, string proposal, uint256 deliveryTime, uint256 bidAmount, BidStatus statusFlag);\n\n    function placeBid(uint256 projectId, address _freelancerAddress, string memory _proposal, uint256 _deliveryTime, uint256 _bidAmount, BidStatus _statusFlag) external {\n        Bid memory newBid = Bid({\n            clientAddress: msg.sender,\n            freelancerAddress: _freelancerAddress,\n            proposal: _proposal,\n            deliveryTime: _deliveryTime,\n            bidAmount: _bidAmount,\n            statusFlag: _statusFlag\n        });\n\n        bids[projectId].push(newBid);\n        emit BidPlaced(projectId, msg.sender, _freelancerAddress, _proposal, _deliveryTime, _bidAmount, _statusFlag);\n    }\n\n    function getBid(uint256 projectId, uint256 index) external view returns (address, address, string memory, uint256, uint256, BidStatus) {\n        Bid memory bid = bids[projectId][index];\n        return (bid.clientAddress, bid.freelancerAddress, bid.proposal, bid.deliveryTime, bid.bidAmount, bid.statusFlag);\n    }\n\n    function getBidsCount(uint256 projectId) external view returns (uint256) {\n        return bids[projectId].length;\n    }\n  function getBidData(uint256 projectId, uint256 index) external view returns (address, address, string memory, uint256, uint256, BidStatus) {\n    Bid memory bid = bids[projectId][index];\n    return (bid.clientAddress, bid.freelancerAddress, bid.proposal, bid.deliveryTime, bid.bidAmount, bid.statusFlag);\n}\n\n}\n",
  "sourcePath": "/home/razalak/ethlancew3/contracts/PlaceBid.sol",
  "compiler": {
    "name": "solc",
    "version": "0.8.19+commit.7dd6d404.Emscripten.clang"
  },
  "schemaVersion": "3.4.16",
  "updatedAt": "2024-05-05T15:00:13.489Z",
  "networkType": "ethereum",
  "devdoc": {
    "kind": "dev",
    "methods": {},
    "version": 1
  },
  "userdoc": {
    "kind": "user",
    "methods": {},
    "version": 1
  }
}