{
  "contractName": "UserDetails",
  "abi": [
    {
      "anonymous": false,
      "inputs": [
        {
          "indexed": true,
          "internalType": "address",
          "name": "userAddress",
          "type": "address"
        }
      ],
      "name": "UserDetailsAdded",
      "type": "event"
    },
    {
      "inputs": [
        {
          "internalType": "address",
          "name": "",
          "type": "address"
        }
      ],
      "name": "users",
      "outputs": [
        {
          "internalType": "string",
          "name": "username",
          "type": "string"
        },
        {
          "internalType": "string",
          "name": "name",
          "type": "string"
        },
        {
          "internalType": "string",
          "name": "phoneNumber",
          "type": "string"
        },
        {
          "internalType": "string",
          "name": "category",
          "type": "string"
        },
        {
          "internalType": "string",
          "name": "skills",
          "type": "string"
        }
      ],
      "stateMutability": "view",
      "type": "function"
    },
    {
      "inputs": [
        {
          "internalType": "string",
          "name": "_username",
          "type": "string"
        },
        {
          "internalType": "string",
          "name": "_name",
          "type": "string"
        },
        {
          "internalType": "string",
          "name": "_phoneNumber",
          "type": "string"
        },
        {
          "internalType": "string",
          "name": "_category",
          "type": "string"
        },
        {
          "internalType": "string",
          "name": "_skills",
          "type": "string"
        }
      ],
      "name": "addUserDetails",
      "outputs": [],
      "stateMutability": "nonpayable",
      "type": "function"
    }
  ],
  "bytecode": "0x608060405234801561001057600080fd5b50610c0e806100206000396000f3fe608060405234801561001057600080fd5b50600436106100365760003560e01c80630f5123861461003b578063a87430ba14610057575b600080fd5b610055600480360381019061005091906105fd565b61008b565b005b610071600480360381019061006c9190610762565b6101c5565b60405161008295949392919061080e565b60405180910390f35b60008060003373ffffffffffffffffffffffffffffffffffffffff1673ffffffffffffffffffffffffffffffffffffffff168152602001908152602001600020905060008160000180546100de906108b3565b905014610120576040517f08c379a000000000000000000000000000000000000000000000000000000000815260040161011790610930565b60405180910390fd5b858160000190816101319190610b06565b50848160010190816101439190610b06565b50838160020190816101559190610b06565b50828160030190816101679190610b06565b50818160040190816101799190610b06565b503373ffffffffffffffffffffffffffffffffffffffff167f6123ab63d4fc44a130e7a3cd17fa9c0f4975dd02a4aa7ae8706bb1d3b33034ec60405160405180910390a2505050505050565b60006020528060005260406000206000915090508060000180546101e8906108b3565b80601f0160208091040260200160405190810160405280929190818152602001828054610214906108b3565b80156102615780601f1061023657610100808354040283529160200191610261565b820191906000526020600020905b81548152906001019060200180831161024457829003601f168201915b505050505090806001018054610276906108b3565b80601f01602080910402602001604051908101604052809291908181526020018280546102a2906108b3565b80156102ef5780601f106102c4576101008083540402835291602001916102ef565b820191906000526020600020905b8154815290600101906020018083116102d257829003601f168201915b505050505090806002018054610304906108b3565b80601f0160208091040260200160405190810160405280929190818152602001828054610330906108b3565b801561037d5780601f106103525761010080835404028352916020019161037d565b820191906000526020600020905b81548152906001019060200180831161036057829003601f168201915b505050505090806003018054610392906108b3565b80601f01602080910402602001604051908101604052809291908181526020018280546103be906108b3565b801561040b5780601f106103e05761010080835404028352916020019161040b565b820191906000526020600020905b8154815290600101906020018083116103ee57829003601f168201915b505050505090806004018054610420906108b3565b80601f016020809104026020016040519081016040528092919081815260200182805461044c906108b3565b80156104995780601f1061046e57610100808354040283529160200191610499565b820191906000526020600020905b81548152906001019060200180831161047c57829003601f168201915b5050505050905085565b6000604051905090565b600080fd5b600080fd5b600080fd5b600080fd5b6000601f19601f8301169050919050565b7f4e487b7100000000000000000000000000000000000000000000000000000000600052604160045260246000fd5b61050a826104c1565b810181811067ffffffffffffffff82111715610529576105286104d2565b5b80604052505050565b600061053c6104a3565b90506105488282610501565b919050565b600067ffffffffffffffff821115610568576105676104d2565b5b610571826104c1565b9050602081019050919050565b82818337600083830152505050565b60006105a061059b8461054d565b610532565b9050828152602081018484840111156105bc576105bb6104bc565b5b6105c784828561057e565b509392505050565b600082601f8301126105e4576105e36104b7565b5b81356105f484826020860161058d565b91505092915050565b600080600080600060a08688031215610619576106186104ad565b5b600086013567ffffffffffffffff811115610637576106366104b2565b5b610643888289016105cf565b955050602086013567ffffffffffffffff811115610664576106636104b2565b5b610670888289016105cf565b945050604086013567ffffffffffffffff811115610691576106906104b2565b5b61069d888289016105cf565b935050606086013567ffffffffffffffff8111156106be576106bd6104b2565b5b6106ca888289016105cf565b925050608086013567ffffffffffffffff8111156106eb576106ea6104b2565b5b6106f7888289016105cf565b9150509295509295909350565b600073ffffffffffffffffffffffffffffffffffffffff82169050919050565b600061072f82610704565b9050919050565b61073f81610724565b811461074a57600080fd5b50565b60008135905061075c81610736565b92915050565b600060208284031215610778576107776104ad565b5b60006107868482850161074d565b91505092915050565b600081519050919050565b600082825260208201905092915050565b60005b838110156107c95780820151818401526020810190506107ae565b60008484015250505050565b60006107e08261078f565b6107ea818561079a565b93506107fa8185602086016107ab565b610803816104c1565b840191505092915050565b600060a082019050818103600083015261082881886107d5565b9050818103602083015261083c81876107d5565b9050818103604083015261085081866107d5565b9050818103606083015261086481856107d5565b9050818103608083015261087881846107d5565b90509695505050505050565b7f4e487b7100000000000000000000000000000000000000000000000000000000600052602260045260246000fd5b600060028204905060018216806108cb57607f821691505b6020821081036108de576108dd610884565b5b50919050565b7f557365722064657461696c7320616c7265616479206578697374000000000000600082015250565b600061091a601a8361079a565b9150610925826108e4565b602082019050919050565b600060208201905081810360008301526109498161090d565b9050919050565b60008190508160005260206000209050919050565b60006020601f8301049050919050565b600082821b905092915050565b6000600883026109b27fffffffffffffffffffffffffffffffffffffffffffffffffffffffffffffffff82610975565b6109bc8683610975565b95508019841693508086168417925050509392505050565b6000819050919050565b6000819050919050565b6000610a036109fe6109f9846109d4565b6109de565b6109d4565b9050919050565b6000819050919050565b610a1d836109e8565b610a31610a2982610a0a565b848454610982565b825550505050565b600090565b610a46610a39565b610a51818484610a14565b505050565b5b81811015610a7557610a6a600082610a3e565b600181019050610a57565b5050565b601f821115610aba57610a8b81610950565b610a9484610965565b81016020851015610aa3578190505b610ab7610aaf85610965565b830182610a56565b50505b505050565b600082821c905092915050565b6000610add60001984600802610abf565b1980831691505092915050565b6000610af68383610acc565b9150826002028217905092915050565b610b0f8261078f565b67ffffffffffffffff811115610b2857610b276104d2565b5b610b3282546108b3565b610b3d828285610a79565b600060209050601f831160018114610b705760008415610b5e578287015190505b610b688582610aea565b865550610bd0565b601f198416610b7e86610950565b60005b82811015610ba657848901518255600182019150602085019450602081019050610b81565b86831015610bc35784890151610bbf601f891682610acc565b8355505b6001600288020188555050505b50505050505056fea26469706673582212207e0b9f686632ed366c1dc724dd943d6a411f8cc92d5c55e0765314cb71000ee164736f6c63430008130033",
  "immutableReferences": {},
  "source": "// SPDX-License-Identifier: MIT\npragma solidity 0.8.19;\n\ncontract UserDetails {\n    struct User {\n        string username;\n        string name;\n        string phoneNumber;\n        string category;\n        string skills;\n        // string bioDescription;\n        // uint256 hourlyRate;\n        // string photo; // Consider storing photo as IPFS hash\n        // string country;\n        // string state;\n        // string city;\n        // string gender;\n        // uint256 yearsOfExperience;\n        // string dob;\n        // string language;\n        // string educationStatus;\n    }\n\n    mapping(address => User) public users;\n\n    event UserDetailsAdded(address indexed userAddress);\n\n    function addUserDetails(\n        string memory _username,\n        string memory _name,\n        string memory _phoneNumber,\n        string memory _category,\n        string memory _skills\n        // string memory _bioDescription,\n        // uint256 _hourlyRate,\n        // string memory _photo,\n        // string memory _country,\n        // string memory _state,\n        // string memory _city,\n        // string memory _gender,\n        // uint256 _yearsOfExperience,\n        // string memory _dob,\n        // string memory _language,\n        // string memory _educationStatus\n    ) public {\n        User storage user = users[msg.sender];\n        require(bytes(user.username).length == 0, \"User details already exist\");\n\n        user.username = _username;\n        user.name = _name;\n        user.phoneNumber = _phoneNumber;\n        user.category = _category;\n        user.skills = _skills;\n        // user.bioDescription = _bioDescription;\n        // user.hourlyRate = _hourlyRate;\n        // user.photo = _photo;\n        // user.country = _country;\n        // user.state = _state;\n        // user.city = _city;\n        // user.gender = _gender;\n        // user.yearsOfExperience = _yearsOfExperience;\n        // user.dob = _dob;\n        // user.language = _language;\n        // user.educationStatus = _educationStatus;\n\n        emit UserDetailsAdded(msg.sender);\n    }\n}\n",
  "sourcePath": "/home/razalak/ethlancew3/contracts/UserDetails.sol",
  "compiler": {
    "name": "solc",
    "version": "0.8.19+commit.7dd6d404.Emscripten.clang"
  },
  "schemaVersion": "3.4.16",
  "updatedAt": "2024-05-03T06:45:38.184Z",
  "devdoc": {
    "kind": "dev",
    "methods": {},
    "version": 1
  },
  "userdoc": {
    "kind": "user",
    "methods": {},
    "version": 1
  }
}